:100000000C944A010C947B010C947B010C947B01B1
:100010000C947B010C947B010C947B010C947B0170
:100020000C947B010C94A9040C94A9040C94A904CD
:100030000C947B010C947B010C947B010C947B0150
:100040000C947B010C947B010C947B010C947B0140
:100050000C947B010C947B010C947B010C94270580
:100060000C947B010C947B010C947B010C947B0120
:100070000C947B010C947B010C947B010C947B0110
:100080000C947B010C947B010C947B010C947B0100
:100090000C947B010C947B010C947B010C947B01F0
:1000A0000C947B010C947B010C947B010C947B01E0
:1000B0000C947B010C947B010C947B010C947B01D0
:1000C0000C947B010C947B010C947B010C947B01C0
:1000D0000C947B010C947B010C947B010C947B01B0
:1000E0000C947B0168026B025A025E026202A20259
:1000F0006F02730279027D02810287028B028F02F6
:10010000A202950299029D020C9473020C9499022A
:100110000C94EA010C9496010C94A2020C946802CF
:100120000C9462020C947D010C9479020C94870269
:100130000C946B020C9495020C945A020C94CE070A
:100140000C9472080C948B020C9402020C947D02A5
:100150000C9481020C949D020C946F020C949501F6
:100160000C948F020C945E020C94A5030C94D103A2
:1001700000002100240027002A002D003000330059
:1001800001010000040107010A0100002000230012
:10019000260029002C002F0032000001000003017E
:1001A0000601090100002200250028002B002E0076
:1001B0003100340002010000050108010B010505B2
:1001C0000505070508080808020202020A0A0808CD
:1001D00004040404010101010101010103030303FB
:1001E00003030303040707070C0C0C0C0C0C0C0C8A
:1001F0000202020206060606060606060B0B0B0B9B
:100200000B0B0B0B010210202008081020401020BF
:1002100040800201020108040201010204081020CA
:1002200040808040201008040201800402018040C8
:100230002010080402010804020101020408102031
:100240004080010204081020408000000A0B0209CF
:100250000C0D0E0807030401000000000000000060
:10026000000000000000000000000000000000008E
:10027000000000000000121110000000000000004B
:10028000000000000000000000000000000000006E
:10029000CE07720811241FBECFEFD1E2DEBFCDBF63
:1002A00000E00CBF12E0A0E0B2E0EAECF1E100E017
:1002B0000BBF02C007900D92AE33B107D9F722E011
:1002C000AEE3B2E001C01D92AA3AB207E1F711E035
:1002D000C9E4D1E000E006C021970109802FFE01AA
:1002E0000E94B208C834D10780E00807A9F70E942D
:1002F00071050C94D3080C94000020918902309170
:100300008A022817390771F4909188028091870238
:10031000981741F0E0918802F0E0E95BFD4F8081A1
:1003200090E008958FEF9FEF089508951F93CF9366
:10033000DF93DC015C962D913C915D972115310591
:1003400039F481E090E013969C938E9312973DC010
:100350005196ED91FC91529750969C915097892F10
:1003600080951FB75E964C915E9741FB772770F999
:1003700041FD6095F8944081772311F0492B01C02D
:1003800048234083E9012197F1F748E0508160FF5D
:1003900002C0592B01C058235083E9012197F1F77E
:1003A0006695415099F7772321F0908189238083C6
:1003B00003C08081982B90831FBF5C968D919C9188
:1003C0005D970197F1F721E030E0C901DF91CF910E
:1003D0001F9108952091890230918A0228173907C8
:1003E00071F4809187022091880290E0805C9F4F99
:1003F000821B910960E470E00E947C08089580E00F
:1004000090E008952091890230918A0228173907D7
:10041000B9F49091880280918702981789F0E09151
:100420008802F0E0E95BFD4F80812091880230E096
:100430002F5F3F4F2F7333272093880290E008955A
:100440008FEF9FEF0895E0918902F0918A02E817FB
:10045000F90769F4A389B4899C91858980958923DA
:100460008C9310928A021092890281E0089580E0B4
:100470000895362F90E0FC01E65BFD4F4491FC01AE
:10048000EC5FFD4F2491FC01E254FE4F94919923BF
:1004900009F46BC0442309F455C050E0FA013197C8
:1004A000E231F10508F04EC08827EE58FF4F8F4F1C
:1004B0000C94B208809180008F7707C080918000F3
:1004C0008F7D03C080918000877F809380003AC039
:1004D00084B58F7702C084B58F7D84BD33C0809191
:1004E000B0008F7703C08091B0008F7D8093B00003
:1004F00029C0809190008F7707C0809190008F7DF8
:1005000003C080919000877F809390001BC08091F2
:10051000A0008F7707C08091A0008F7D03C08091DD
:10052000A000877F8093A0000DC0809120018F776D
:1005300007C0809120018F7D03C080912001877FBB
:1005400080932001E92FF0E0EE0FFF1FEC55FE4FE6
:10055000A591B4918FB7F894EC91311103C0209517
:100560002E2301C02E2B2C938FBF0895863308F0C5
:10057000865390917B00282F2870977F922B909321
:100580007B008770806480937C0080917A00806417
:1005900080937A0080917A0086FDFCCF809178006C
:1005A0002091790090E0922B08953FB7F8948091C4
:1005B000430290914402A0914502B091460226B5B3
:1005C000A89B05C02F3F19F00196A11DB11D3FBF8B
:1005D000BA2FA92F982F8827820F911DA11DB11D19
:1005E000BC01CD0142E0660F771F881F991F4A9515
:1005F000D1F708958F929F92AF92BF92CF92DF92E0
:10060000EF92FF926B017C010E94D5024B015C01CD
:10061000C114D104E104F104F1F00E94D502DC011F
:10062000CB0188199909AA09BB09883E9340A10505
:10063000B10570F321E0C21AD108E108F10888EE93
:10064000880E83E0981EA11CB11CC114D104E104E2
:10065000F10419F7DDCFFF90EF90DF90CF90BF90BE
:10066000AF909F908F9008950F931F93CF93DF9338
:100670001F921F92CDB7DEB7182F062F6CE78BE8BD
:1006800092E02A8349830E9496016CE08BE892E015
:100690000E949601612F8BE892E00E949601602FE4
:1006A0008BE892E00E9496014981642F8BE892E0EA
:1006B0000E9496012A81622F8BE892E00E949601A7
:1006C00061E08BE892E00E94960165E070E080E0D6
:1006D00090E00F900F90DF91CF911F910F910C94AC
:1006E000FA020F931F93CF93DF931F92CDB7DEB71C
:1006F000182F062F6CE78BE892E049830E94960141
:1007000063E08BE892E00E949601612F8BE892E013
:100710000E949601602F8BE892E00E949601498129
:10072000642F8BE892E00E94960161E08BE892E0F2
:100730000E9496016AE070E080E090E00F90DF9107
:10074000CF911F910F910C94FA02CF92DF92EF920A
:10075000FF920F931F93CF93DF936C017A018B016C
:10076000C0E0D0E0CE15DF0589F0D8016D918D0194
:10077000D601ED91FC910190F081E02DC601199513
:10078000892B11F47E0102C02196ECCFC701DF91C5
:10079000CF911F910F91FF90EF90DF90CF90089530
:1007A000089580E090E00895CF93C82F6CE78BE820
:1007B00092E00E94960168E18BE892E00E94960127
:1007C0006C2F8BE892E0CF910C949601CF93C82FB9
:1007D0006CE78BE892E00E94960169E18BE892E079
:1007E0000E9496016C2F8BE892E0CF910C949601B9
:1007F0006CE78BE892E00E94960168E18BE892E05A
:100800000E94960160E08BE892E00E9496016CE7FE
:100810008BE892E00E94960169E18BE892E00E94E9
:10082000960160E08BE892E00C949601009769F0E5
:10083000FC0101900020E9F73197AF01481B590BEB
:10084000BC018BE892E00C94A50380E090E0089551
:1008500082E192E00C9416048F929F92AF92BF9225
:10086000CF92DF92EF92FF920F931F93CF93DF937C
:10087000CDB7DEB7A1970FB6F894DEBF0FBECDBFE0
:100880006C01990FEE08FF08F7FE31C0E0918B0272
:10089000F0918C020190F081E02D6DE28BE892E006
:1008A00019958C0122273327A9012C193D094E09DE
:1008B0005F0919A2CE0181967C019AE0892E912CC4
:1008C000A12CB12CCA01B901A50194010E94900884
:1008D000605DF70162937F012115310541055105E6
:1008E00089F7CF010E941604800F911F1DC0A70138
:1008F000960119A28E010F5D1F4F8AE0C82ED12CE0
:10090000E12CF12CCA01B901A70196010E949008BF
:10091000605DF80162938F01211531054105510594
:1009200089F7CF010E941604A1960FB6F894DEBF96
:100930000FBECDBFDF91CF911F910F91FF90EF9030
:10094000DF90CF90BF90AF909F908F9008950E94BE
:10095000CE081F920F920FB60F9211240BB60F9272
:100960002F933F934F935F936F937F938F939F93B7
:10097000AF93BF93EF93FF93E0918902F0918A02C6
:10098000309709F451C0968DA685B785858591FF6E
:1009900004C09C91892329F447C09C91892309F0C4
:1009A00043C0A389B4899C918589809589238C93C0
:1009B000868997890197F1F7608D718DA685B78536
:1009C000558538E020E0CB010197F1F7822F90E0C8
:1009D00095958795282F4C91452309F02068315033
:1009E00091F7868D81FD20958091870290E0019698
:1009F0008F73992730918802381749F0A0918702A8
:100A0000B0E0A95BBD4F2C938093870203C0868D15
:100A10008160868F828D938D0197F1F7A389B489C8
:100A20009C918589892B8C93FF91EF91BF91AF9118
:100A30009F918F917F916F915F914F913F912F91F6
:100A40000F900BBE0F900FBE0F901F9018951F9226
:100A50000F920FB60F9211242F933F938F939F9372
:100A6000AF93BF9380913F0290914002A0914102C9
:100A7000B091420230913E0223E0230F2D3720F443
:100A80000196A11DB11D05C026E8230F0296A11DE8
:100A9000B11D20933E0280933F0290934002A093A9
:100AA0004102B09342028091430290914402A0918E
:100AB0004502B09146020196A11DB11D80934302EB
:100AC00090934402A0934502B0934602BF91AF9128
:100AD0009F918F913F912F910F900FBE0F901F907C
:100AE0001895789484B5826084BD84B5816084BD96
:100AF00085B5826085BD85B5816085BD80916E00BC
:100B0000816080936E0010928100809181008260EC
:100B10008093810080918100816080938100809129
:100B200080008160809380008091B1008460809318
:100B3000B1008091B00081608093B00080919100FD
:100B400082608093910080919100816080939100F8
:100B5000809190008160809390008091A1008260DC
:100B60008093A1008091A10081608093A100809179
:100B7000A00081608093A000809121018260809319
:100B800021018091210181608093210180912001C8
:100B900081608093200180917A00846080937A0044
:100BA00080917A00826080937A0080917A008160DF
:100BB00080937A0080917A00806880937A00109206
:100BC000C1001092A6021092A5021092A4021092E7
:100BD000A3021092A2021092A1028FE190E09093E2
:100BE000A8028093A7028091970296EF980F943005
:100BF00048F02EEC280F243028F022EC280F283063
:100C000008F06EC021E030E03093A2022093A102F0
:100C10002DE130E03093A4022093A3022DE030E0D8
:100C20003093A6022093A502943060F02EEC280F9A
:100C3000243040F022EC280F283008F4A7C1A0E0AF
:100C4000B0E0A6C1A8E6B0E0E8E6F0E0208194308C
:100C500018F08E53883010F081E001C084E0822BC0
:100C60008C938091970296EF980F943058F02EEC69
:100C7000280F243038F022EC280F283030F020E004
:100C800030E005C02BE630E002C02DE630E03093C6
:100C90009F0220939E02943010F49AEF0BC082338F
:100CA00081F0833381F0843381F092EC980F983097
:100CB00070F492EC980F81E001C0880F9A95EAF7E2
:100CC00007C088E005C084E003C082E001C081E085
:100CD0008093A0028091A7029091A8020197F1F75A
:100CE0008091A5029091A602892B21F18091890221
:100CF00090918A0222E08B389207E1F0009711F080
:100D00000E9423028091A9028E7F8093A9021092F3
:100D10008702109288028BE892E090938A02809377
:100D20008902E0919E02F0919F0290818091A00241
:100D3000892B808360EA7FE080E090E00E94FA02E5
:100D40006CE78BE892E00E94960160E08BE892E00D
:100D50000E9496016AE070E080E090E00E94FA0252
:100D60000E94F8036AE070E080E090E00E94FA02DE
:100D70006AE070E080E090E00E94FA0224E04BE933
:100D800064E084E00E94340322E14BE962E184E004
:100D90000E94340365E070E080E090E00E94FA0277
:100DA00026E14BE966E184E00E94340324E644E056
:100DB00066E184E00E94340365E070E080E090E04A
:100DC0000E94FA0224E640E764E684E00E943403CD
:100DD00024E64BE964E689E90E94340365E070E0AB
:100DE00080E090E00E94FA0224E64BE966E18BE99C
:100DF0000E94340324E641E466E181E40E94340366
:100E00006AE070E080E090E00E94FA028DE20E94C9
:100E1000D40388E00E94E6036AE070E080E090E09E
:100E20000E94FA0285E192E00E94160444E164E621
:100E300084E80E94710342E06FE58AE70E94710333
:100E400042E06FE58EE80E9471032EE64FE76BE605
:100E50008AE70E9434032EE649E86EE68FE70E9497
:100E600034032BE64EE86EE689E80E9434038AE0FC
:100E70000E94D4038BE10E94E60382E292E00E948A
:100E800016040E9428048BE292E00E9416040E943D
:100E9000280484E392E00E9416046AE070E080E097
:100EA00090E00E94FA02C0E0D0E06CE78BE892E0AC
:100EB0000E94960165E08BE892E00E94960162E450
:100EC0008BE892E00E94960167E18BE892E00E9435
:100ED00096016AE98BE892E00E94960166E48BE84D
:100EE00092E00E9496016AE070E080E090E00E944B
:100EF000FA026AEF70E080E090E00E94FA020E943D
:100F0000F80364E670E080E090E00E94FA0264E694
:100F100070E080E090E00E94FA020E94F8036AE02C
:100F200070E080E090E00E94FA0283E50E94D40322
:100F30008BE10E94E60386E30E94B6020E942C0425
:100F40000E94280487E30E94B6020E942C040E949B
:100F5000280488E30E94B6020E942C046AE070E034
:100F600080E090E00E94FA0264EF71E080E090E09F
:100F70000E94FA026EEF71E080E090E00E94FA02B7
:100F8000209709F492CF0E9400008FCFA8E6B0E02E
:100F9000283008F459CEE0E0F0E058CECF93DF934C
:100FA00010928E0210928D0288EE93E0A0E0B0E0E5
:100FB00080938F0290939002A0939102B09392023B
:100FC00084E092E090938C0280938B021092A202B4
:100FD0001092A1021092A4021092A3021092A602F3
:100FE0001092A5021092A8021092A7026091A90285
:100FF0006E7F6D7F6093A9026695617081E06827BE
:1010000083E00E943902E7E0F2E02491E1ECF1E0B4
:101010008491882399F090E0880F991FFC01E05992
:10102000FE4FA591B491FC01EC55FE4F8591949132
:101030008FB7F894EC91E22BEC938FBFE7E0F2E0EE
:10104000E491E0939B02E1ECF1E0E491F0E0EE0F3B
:10105000FF1FEC55FE4F8591949190939D028093D4
:101060009C02E6E0F2E02491E0ECF1E08491882338
:10107000C1F090E0880F991FFC01E059FE4FC59127
:10108000D491FC01EC55FE4FA591B4919FB7F89413
:101090008881E22FE0958E2388838C91E823EC935E
:1010A0009FBF8091A90281FD04C061E082E00E949F
:1010B000390282E080939702E6E0F2E0E491E09367
:1010C0009802E0ECF1E0E491F0E0EE0FFF1FE6574C
:1010D000FE4F8591949190939A0280939902DF91AB
:1010E000CF91089584E092E090938C0280938B02DC
:1010F0008BE892E00C94230297FB072E16F40094E1
:1011000007D077FD09D00E94BA0807FC05D03EF44D
:10111000909581959F4F0895709561957F4F0895A3
:10112000A1E21A2EAA1BBB1BFD010DC0AA1FBB1FEB
:10113000EE1FFF1FA217B307E407F50720F0A21B5D
:10114000B30BE40BF50B661F771F881F991F1A94CA
:1011500069F760957095809590959B01AC01BD01F4
:10116000CF010895EE0FFF1F881F8BBF0790F691E8
:10117000E02D1994AA1BBB1B51E107C0AA1FBB1F7E
:10118000A617B70710F0A61BB70B881F991F5A9513
:10119000A9F780959095BC01CD01089581E090E07C
:1011A000F8940C94D30811E0C9E4D1E000E006C043
:1011B000802FFE010E94B2082196011DCA34D1077A
:0A11C00080E00807A9F7F894FFCFBC
:1011CA00000000009601A503D1039501EA0102027D
:1011DA007D010D0A0048656C6C6F20546865726564
:1011EA002100416E616C6F67203000416E616C6F47
:0E11FA0067203100416E616C6F67203200008B
:00000001FF
